{
  "contractName": "ElectionContract",
  "abi": [
    {
      "inputs": [
        {
          "internalType": "uint256",
          "name": "",
          "type": "uint256"
        }
      ],
      "name": "candidateById",
      "outputs": [
        {
          "internalType": "address",
          "name": "candidateAddress",
          "type": "address"
        },
        {
          "internalType": "uint256",
          "name": "candidateId",
          "type": "uint256"
        },
        {
          "internalType": "uint256",
          "name": "votes",
          "type": "uint256"
        }
      ],
      "stateMutability": "view",
      "type": "function"
    },
    {
      "inputs": [],
      "name": "candidateNumber",
      "outputs": [
        {
          "internalType": "uint256",
          "name": "",
          "type": "uint256"
        }
      ],
      "stateMutability": "view",
      "type": "function"
    },
    {
      "inputs": [
        {
          "internalType": "uint256",
          "name": "",
          "type": "uint256"
        }
      ],
      "name": "candidates",
      "outputs": [
        {
          "internalType": "address",
          "name": "candidateAddress",
          "type": "address"
        },
        {
          "internalType": "uint256",
          "name": "candidateId",
          "type": "uint256"
        },
        {
          "internalType": "uint256",
          "name": "votes",
          "type": "uint256"
        }
      ],
      "stateMutability": "view",
      "type": "function"
    },
    {
      "inputs": [],
      "name": "candidateRegistration",
      "outputs": [],
      "stateMutability": "nonpayable",
      "type": "function"
    },
    {
      "inputs": [
        {
          "internalType": "uint256",
          "name": "_candidateId",
          "type": "uint256"
        }
      ],
      "name": "Vote",
      "outputs": [],
      "stateMutability": "nonpayable",
      "type": "function"
    },
    {
      "inputs": [],
      "name": "getCandidates",
      "outputs": [
        {
          "components": [
            {
              "internalType": "address",
              "name": "candidateAddress",
              "type": "address"
            },
            {
              "internalType": "uint256",
              "name": "candidateId",
              "type": "uint256"
            },
            {
              "internalType": "uint256",
              "name": "votes",
              "type": "uint256"
            }
          ],
          "internalType": "struct ElectionContract.Candidate[]",
          "name": "",
          "type": "tuple[]"
        }
      ],
      "stateMutability": "view",
      "type": "function"
    }
  ],
  "bytecode": "0x60806040525f8055348015610012575f80fd5b50610486806100205f395ff3fe608060405234801561000f575f80fd5b5060043610610060575f3560e01c806306a49fce146100645780631159727a146100825780633477ee2e146100df578063398ebe64146100f25780633b802421146100fc578063dcd6a5cd14610112575b5f80fd5b61006c610125565b60405161007991906103a0565b60405180910390f35b6100ba610090366004610401565b60066020525f90815260409020805460018201546002909201546001600160a01b03909116919083565b604080516001600160a01b039094168452602084019290925290820152606001610079565b6100ba6100ed366004610401565b6101a5565b6100fa6101e0565b005b6101045f5481565b604051908152602001610079565b6100fa610120366004610401565b610303565b60606003805480602002602001604051908101604052809291908181526020015f905b8282101561019c575f848152602090819020604080516060810182526003860290920180546001600160a01b0316835260018082015484860152600290910154918301919091529083529092019101610148565b50505050905090565b600381815481106101b4575f80fd5b5f9182526020909120600390910201805460018201546002909201546001600160a01b03909116925083565b604080516060810182523381525f8054602083018190529282018190529091908061020a83610418565b909155505060038054600181810183555f8381528451929093027fc2575a0e9e593c00f959f8c92f12db2869c3395a3b0502d05e2516446f71f85b810180546001600160a01b039485166001600160a01b031991821617909155602080870180517fc2575a0e9e593c00f959f8c92f12db2869c3395a3b0502d05e2516446f71f85c850155604080890180517fc2575a0e9e593c00f959f8c92f12db2869c3395a3b0502d05e2516446f71f85d909601959095558754885260068352808820985189549716969093169590951787559351868401559051600295909501949094553383526005909152919020805460ff19169091179055565b5f5481111561034f5760405162461bcd60e51b8152602060048201526014602482015273125b9d985b1a590810d85b991a59185d1948125160621b604482015260640160405180910390fd5b600381815481106103625761036261043c565b5f9182526020822060026003909202010180549161037f83610418565b9091555050335f908152600460205260409020805460ff1916600117905550565b602080825282518282018190525f919060409081850190868401855b828110156103f457815180516001600160a01b03168552868101518786015285015185850152606090930192908501906001016103bc565b5091979650505050505050565b5f60208284031215610411575f80fd5b5035919050565b5f6001820161043557634e487b7160e01b5f52601160045260245ffd5b5060010190565b634e487b7160e01b5f52603260045260245ffdfea2646970667358221220d526cbf893bdc1de37ee1053372d403026637c8c3a6bfde751a48bca5fc490a164736f6c63430008150033",
  "immutableReferences": {},
  "source": "//SPDX-License-Identifier: MIT\r\n\r\npragma solidity ^0.8.21;\r\n\r\ncontract ElectionContract{\r\n    struct Candidate{\r\n        address candidateAddress;       //address of the candidate\r\n        uint candidateId;               //Id of the Canddiate\r\n        uint votes;                     //numbers of votes the candidate have gone... initially it will be 0 for all the candidates\r\n    }\r\n\r\n    uint public candidateNumber = 0;           //varaible for keeping track of how many candidates have register for the elections and also for providing ther candidateId to each candidate\r\n    uint vottingStart;\r\n    uint vottingEnd;\r\n\r\n\r\n    Candidate[] public candidates;      //array for storing data of all the candidatess standing in the elections\r\n    mapping(address => bool) hasVoted;          // a map for keeping the track of voters, wheather they have voted or not because each voter can vote only once.\r\n    mapping(address => bool) isCandidate;\r\n    mapping(uint => Candidate) public candidateById;\r\n\r\n\r\n    function candidateRegistration() public {               //function for getting the person registered as a candidate if it wants to stand in a election\r\n        // require(isCandidate[msg.sender] == false, \"You are already a candidate.\");\r\n        Candidate memory newCandidate = Candidate(msg.sender, candidateNumber, 0);\r\n        candidateNumber++;\r\n        candidates.push(newCandidate);\r\n        candidateById[candidateNumber] = newCandidate;\r\n        isCandidate[msg.sender] = true;\r\n    }\r\n\r\n\r\n    function Vote(uint _candidateId) public {\r\n        // require(!hasVoted[msg.sender], \"You have already Voted\");\r\n        require(_candidateId >= 0 && _candidateId <= candidateNumber, \"Invalid Candidate ID\");\r\n\r\n        candidates[_candidateId].votes++;\r\n\r\n        // candidateById[_candidateId].votes++;\r\n        hasVoted[msg.sender] = true;\r\n    }\r\n\r\n    function getCandidates() public view returns(Candidate[] memory){\r\n        return candidates;\r\n    }\r\n\r\n\r\n}",
  "sourcePath": "C:\\Users\\deepa\\Desktop\\Projects\\Decentralized Voting App\\contracts\\Election.sol",
  "compiler": {
    "name": "solc",
    "version": "0.8.21+commit.d9974bed.Emscripten.clang"
  },
  "schemaVersion": "3.4.16",
  "updatedAt": "2025-01-19T08:15:15.357Z",
  "devdoc": {
    "kind": "dev",
    "methods": {},
    "version": 1
  },
  "userdoc": {
    "kind": "user",
    "methods": {},
    "version": 1
  }
}