{
  "contractName": "ElectionContract",
  "abi": [
    {
      "inputs": [
        {
          "internalType": "uint256",
          "name": "",
          "type": "uint256"
        }
      ],
      "name": "candidateById",
      "outputs": [
        {
          "internalType": "address",
          "name": "candidateAddress",
          "type": "address"
        },
        {
          "internalType": "uint256",
          "name": "candidateId",
          "type": "uint256"
        },
        {
          "internalType": "uint256",
          "name": "votes",
          "type": "uint256"
        }
      ],
      "stateMutability": "view",
      "type": "function"
    },
    {
      "inputs": [],
      "name": "candidateNumber",
      "outputs": [
        {
          "internalType": "uint256",
          "name": "",
          "type": "uint256"
        }
      ],
      "stateMutability": "view",
      "type": "function"
    },
    {
      "inputs": [
        {
          "internalType": "uint256",
          "name": "",
          "type": "uint256"
        }
      ],
      "name": "candidates",
      "outputs": [
        {
          "internalType": "address",
          "name": "candidateAddress",
          "type": "address"
        },
        {
          "internalType": "uint256",
          "name": "candidateId",
          "type": "uint256"
        },
        {
          "internalType": "uint256",
          "name": "votes",
          "type": "uint256"
        }
      ],
      "stateMutability": "view",
      "type": "function"
    },
    {
      "inputs": [],
      "name": "candidateRegistration",
      "outputs": [],
      "stateMutability": "nonpayable",
      "type": "function"
    },
    {
      "inputs": [
        {
          "internalType": "uint256",
          "name": "_candidateId",
          "type": "uint256"
        }
      ],
      "name": "Vote",
      "outputs": [],
      "stateMutability": "nonpayable",
      "type": "function"
    },
    {
      "inputs": [],
      "name": "getCandidates",
      "outputs": [
        {
          "components": [
            {
              "internalType": "address",
              "name": "candidateAddress",
              "type": "address"
            },
            {
              "internalType": "uint256",
              "name": "candidateId",
              "type": "uint256"
            },
            {
              "internalType": "uint256",
              "name": "votes",
              "type": "uint256"
            }
          ],
          "internalType": "struct ElectionContract.Candidate[]",
          "name": "",
          "type": "tuple[]"
        }
      ],
      "stateMutability": "view",
      "type": "function"
    }
  ],
  "bytecode": "0x60806040525f8055348015610012575f80fd5b50610873806100205f395ff3fe608060405234801561000f575f80fd5b5060043610610060575f3560e01c806306a49fce146100645780631159727a146100825780633477ee2e146100b4578063398ebe64146100e65780633b802421146100f0578063dcd6a5cd1461010e575b5f80fd5b61006c61012a565b604051610079919061063f565b60405180910390f35b61009c6004803603810190610097919061068d565b6101ee565b6040516100ab939291906106d6565b60405180910390f35b6100ce60048036038101906100c9919061068d565b610233565b6040516100dd939291906106d6565b60405180910390f35b6100ee610287565b005b6100f861041b565b604051610105919061070b565b60405180910390f35b6101286004803603810190610123919061068d565b610420565b005b60606003805480602002602001604051908101604052809291908181526020015f905b828210156101e5578382905f5260205f2090600302016040518060600160405290815f82015f9054906101000a900473ffffffffffffffffffffffffffffffffffffffff1673ffffffffffffffffffffffffffffffffffffffff1673ffffffffffffffffffffffffffffffffffffffff168152602001600182015481526020016002820154815250508152602001906001019061014d565b50505050905090565b6006602052805f5260405f205f91509050805f015f9054906101000a900473ffffffffffffffffffffffffffffffffffffffff16908060010154908060020154905083565b60038181548110610242575f80fd5b905f5260205f2090600302015f91509050805f015f9054906101000a900473ffffffffffffffffffffffffffffffffffffffff16908060010154908060020154905083565b5f60405180606001604052803373ffffffffffffffffffffffffffffffffffffffff1681526020015f5481526020015f81525090505f808154809291906102cd90610751565b9190505550600381908060018154018082558091505060019003905f5260205f2090600302015f909190919091505f820151815f015f6101000a81548173ffffffffffffffffffffffffffffffffffffffff021916908373ffffffffffffffffffffffffffffffffffffffff160217905550602082015181600101556040820151816002015550508060065f805481526020019081526020015f205f820151815f015f6101000a81548173ffffffffffffffffffffffffffffffffffffffff021916908373ffffffffffffffffffffffffffffffffffffffff1602179055506020820151816001015560408201518160020155905050600160055f3373ffffffffffffffffffffffffffffffffffffffff1673ffffffffffffffffffffffffffffffffffffffff1681526020019081526020015f205f6101000a81548160ff02191690831515021790555050565b5f5481565b5f811015801561043157505f548111155b610470576040517f08c379a0000000000000000000000000000000000000000000000000000000008152600401610467906107f2565b60405180910390fd5b6003818154811061048457610483610810565b5b905f5260205f2090600302016002015f8154809291906104a390610751565b9190505550600160045f3373ffffffffffffffffffffffffffffffffffffffff1673ffffffffffffffffffffffffffffffffffffffff1681526020019081526020015f205f6101000a81548160ff02191690831515021790555050565b5f81519050919050565b5f82825260208201905092915050565b5f819050602082019050919050565b5f73ffffffffffffffffffffffffffffffffffffffff82169050919050565b5f61055282610529565b9050919050565b61056281610548565b82525050565b5f819050919050565b61057a81610568565b82525050565b606082015f8201516105945f850182610559565b5060208201516105a76020850182610571565b5060408201516105ba6040850182610571565b50505050565b5f6105cb8383610580565b60608301905092915050565b5f602082019050919050565b5f6105ed82610500565b6105f7818561050a565b93506106028361051a565b805f5b8381101561063257815161061988826105c0565b9750610624836105d7565b925050600181019050610605565b5085935050505092915050565b5f6020820190508181035f83015261065781846105e3565b905092915050565b5f80fd5b61066c81610568565b8114610676575f80fd5b50565b5f8135905061068781610663565b92915050565b5f602082840312156106a2576106a161065f565b5b5f6106af84828501610679565b91505092915050565b6106c181610548565b82525050565b6106d081610568565b82525050565b5f6060820190506106e95f8301866106b8565b6106f660208301856106c7565b61070360408301846106c7565b949350505050565b5f60208201905061071e5f8301846106c7565b92915050565b7f4e487b71000000000000000000000000000000000000000000000000000000005f52601160045260245ffd5b5f61075b82610568565b91507fffffffffffffffffffffffffffffffffffffffffffffffffffffffffffffffff820361078d5761078c610724565b5b600182019050919050565b5f82825260208201905092915050565b7f496e76616c69642043616e6469646174652049440000000000000000000000005f82015250565b5f6107dc601483610798565b91506107e7826107a8565b602082019050919050565b5f6020820190508181035f830152610809816107d0565b9050919050565b7f4e487b71000000000000000000000000000000000000000000000000000000005f52603260045260245ffdfea264697066735822122011dadd431b5aba0c894d9af889d1ea8ee420a67de308fb7fcf3ad10c87c506b764736f6c63430008150033",
  "immutableReferences": {},
  "source": "//SPDX-License-Identifier: MIT\r\n\r\npragma solidity ^0.8.21;\r\n\r\ncontract ElectionContract{\r\n    struct Candidate{\r\n        address candidateAddress;       //address of the candidate\r\n        uint candidateId;               //Id of the Canddiate\r\n        uint votes;                     //numbers of votes the candidate have gone... initially it will be 0 for all the candidates\r\n    }\r\n\r\n    uint public candidateNumber = 0;           //varaible for keeping track of how many candidates have register for the elections and also for providing ther candidateId to each candidate\r\n    uint vottingStart;\r\n    uint vottingEnd;\r\n\r\n\r\n    Candidate[] public candidates;      //array for storing data of all the candidatess standing in the elections\r\n    mapping(address => bool) hasVoted;          // a map for keeping the track of voters, wheather they have voted or not because each voter can vote only once.\r\n    mapping(address => bool) isCandidate;\r\n    mapping(uint => Candidate) public candidateById;\r\n\r\n\r\n    function candidateRegistration() public {               //function for getting the person registered as a candidate if it wants to stand in a election\r\n        // require(isCandidate[msg.sender] == false, \"You are already a candidate.\");\r\n        Candidate memory newCandidate = Candidate(msg.sender, candidateNumber, 0);\r\n        candidateNumber++;\r\n        candidates.push(newCandidate);\r\n        candidateById[candidateNumber] = newCandidate;\r\n        isCandidate[msg.sender] = true;\r\n    }\r\n\r\n\r\n    function Vote(uint _candidateId) public {\r\n        // require(!hasVoted[msg.sender], \"You have already Voted\");\r\n        require(_candidateId >= 0 && _candidateId <= candidateNumber, \"Invalid Candidate ID\");\r\n\r\n        candidates[_candidateId].votes++;\r\n\r\n        // candidateById[_candidateId].votes++;\r\n        hasVoted[msg.sender] = true;\r\n    }\r\n\r\n    function getCandidates() public view returns(Candidate[] memory){\r\n        return candidates;\r\n    }\r\n\r\n\r\n}",
  "sourcePath": "C:\\Users\\deepa\\Desktop\\Projects\\Decentralized Voting App\\contracts\\Election.sol",
  "compiler": {
    "name": "solc",
    "version": "0.8.21+commit.d9974bed.Emscripten.clang"
  },
  "schemaVersion": "3.4.16",
  "updatedAt": "2025-01-19T07:44:12.022Z",
  "devdoc": {
    "kind": "dev",
    "methods": {},
    "version": 1
  },
  "userdoc": {
    "kind": "user",
    "methods": {},
    "version": 1
  }
}